:020000040800F2
:1000000020160020010100083D7F00088D4B0008EC
:10001000F5640008392F0008C398000800000000AC
:10002000000000000000000000000000A58D000896
:100030002D31000800000000A5820008918E000804
:100040001B0100081B0100081B0100081B01000820
:100050001B0100081B0100081B0100081B01000810
:100060001B0100081B0100081B0100081B01000800
:100070001B0100081B0100081B0100081B010008F0
:100080001B0100081B0100081B0100081B010008E0
:100090001B0100081B0100081B0100081B010008D0
:1000A0001B0100081B0100081B0100081B010008C0
:1000B0001B0100081B0100081B0100081B010008B0
:1000C0001B0100081B0100081B0100081B010008A0
:1000D0001B010008B994000841950008919600089A
:1000E0001B0100081B0100081B010008DFF80CD0F1
:1000F00000F0ACFC004800476DAD00082016002061
:100100000648804706480047FEE7FEE7FEE7FEE7B1
:10011000FEE7FEE7FEE7FEE7FEE7FEE7E18E00080A
:10012000ED00000840EA01039B0703D009E008C97D
:10013000121F08C0042AFAD203E011F8013B00F8AC
:10014000013B521EF9D27047D2B201E000F8012BF8
:10015000491EFBD270470022F6E710B513460A4647
:1001600004461946FFF7F0FF204610BDF0B480EAC0
:100170000102D40F4200B2EB410F02D20246084600
:1001800011464A0042D0C30DDDB2C1F3C752AD1AC9
:10019000202D35DAC1F3160141F4000204B15242B8
:1001A000C5F1200602FA06F12A411044B3EBD05FF4
:1001B00023D0C4B1012DA0EBC35009DCF0BC4FF03B
:1001C000004202EAC352DBB200F5000000F04CBB73
:1001D000400000F1807000EBC350A0F1807040EA55
:1001E000D170490009E0490841EAC071A0EBC35051
:1001F00000F50000400800EBC350F0BC00F02BBB42
:100200006142012202EB4101001BF6E7F0BC70479E
:1002100081F00041AAE780F00040A7E780EA0102F0
:1002200010B502F00043400022D04A001FD0010E5A
:1002300001EB1261C0F35600C2F3560240F4000015
:1002400042F40002A0FB022000047F39140400D015
:10025000401C50EA124001D44000491EC2B20C06B4
:1002600004EBD010401C4008802A02D003E000209C
:1002700010BD20F00100002900DA0020184310BD55
:1002800030B480EA010202F0004530F0004221F073
:10029000004013D090B1C30DD40DC2F31601C0F3CA
:1002A0001600E41A41F4000140F400027D3491424A
:1002B00001D3641C00E04900002C02DA30BC0020AD
:1002C00070474FF400000023914201D3891A034381
:1002D00040084FEA4101F7D151B1914202D14FF0AC
:1002E000004105E002D24FF0010101E06FF0010191
:1002F00003EBC450284430BC00F0ADBA2DE9FE4FEA
:10030000804681EA0300C00F0C46009021F00041B6
:1003100023F00045B8EB0200A94105D24046214632
:1003200090461C460B46024623F00040104347D03F
:10033000270DC7F30A00C3F30A510290401A019037
:1003400040286BDAC3F3130040F4801B00989246F8
:1003500020B10023D2EB030A63EB0B0B0198594643
:10036000C0F14002504600F045FA06460D465046A0
:100370005946019A00F05DFA10EB08006141002433
:1003800087EA115284EAE7731A4340D0009A62B3B5
:10039000019A012A4FEA075215DC001B61EB0201AA
:1003A0004FF0004202EA0752CDE90042001C41F53D
:1003B000801132462B4600F0A0FA03B0BDE8F08F62
:1003C00040462146F9E7001B61EB0201001C41F5A4
:1003D000801300185B412018A2F5001747EB0301BA
:1003E00040EAD570B6196D4111E06D084FEA360646
:1003F00045EAC0754FEA0752001B61EB0201001C81
:1004000041F5801149084FEA300000195141324648
:100410002B4603B0BDE8F04F00F060BA009801220F
:1004200040000023D0EB020263EBE073009821460A
:100430004FEAE074B8EB000061EB0401E9E783F0F8
:1004400000435BE781F0004158E72DE9FE4F81EA68
:10045000030404F0004421F0004100944FF0000B2D
:1004600023F0004350EA01045ED052EA03045BD05B
:10047000C3F30A54C1F30A552C44A4F2F334019493
:10048000A0FB0254C1F3130141F48011C3F3130321
:1004900043F4801301FB024400FB034E840A970AD5
:1004A00044EA815447EA8357A4FB076802958D0A02
:1004B00005FB07854FEA932C04FB0C542705029D8E
:1004C0004FEA065847EA1637B5EB08056EEB070CFE
:1004D000870E920E47EA811742EA8312A7FB0201B8
:1004E000B6EB0B0164EB00042B0D43EA0C335E18F2
:1004F00044EB1C50DA465146E7FB0201C5F31304F6
:100500004FEA0B3343EA14534FEA0432019C43EAA7
:100510000603A4F10C040294009CCDE900B400F0A1
:10052000ECF903B0BDE8F08F00200146F9E72DE9B2
:10053000F04D81EA030404F0004B21F0004514461D
:100540004FF0000A23F0004150EA050220D054EA9F
:1005500001021DD0C5F30A570246C5F31303C1F3C8
:100560001300C1F30A5640F4801543F48013A7EB3F
:100570000608101BD64608F2FD3873EB050002D3BF
:1005800008F1010801E092185B41B8F1000F03DAAD
:1005900000200146BDE8F08D00204FF48011064692
:1005A00084460EE0171B73EB050705D3121B63EBA4
:1005B000050306434CEA010C49084FEA3000921843
:1005C0005B4150EA0107EDD152EA030012D082EA02
:1005D000040083EA0501084305D0101BAB4106D295
:1005E0000122002306E000224FF0004302E06FF0FA
:1005F000010253101AEB06004CEB085110EB0A00F5
:1006000041EB0B01BDE8F04D00F068B9C10F80EA85
:10061000E0700844CA079623002100F025B996230C
:100620000022114600F020B90EB5C10F80EAE0703B
:100630000844CA07002140F233438DE80E000A4601
:100640000B4600F05AF903B000BD00F0004220F064
:100650000040C10DC0F3160040F400007F2901DA0C
:1006600000207047962903DCC1F19601C84001E0E3
:1006700096398840002AF4D04042704720F000406C
:10068000C10DC0F3160040F400007F2901DA0020FC
:100690007047962903DCC1F19601C840704796392E
:1006A0008840704770B5C1F30A5201F0004500243C
:1006B000C1F3130140F2FF3341F480119A4201DA91
:1006C000002070BD40F233439A42A2F2334203DC71
:1006D000524200F09EF800E090402C43F1D040429E
:1006E00070BD00F0004230F000400AD0C10D01F5AD
:1006F0006071C0F3160042EA0151C208400711437D
:10070000704700200146704730B5041E71F10004A7
:1007100004DB4FF00044404264EB0101141E73F10E
:10072000000405DB1C464FF00043524263EB040318
:100730008B4208BF824230BD30B5041E71F1000407
:1007400004DB4FF00044404264EB0101141E73F1DE
:10075000000405DB1C464FF00043524263EB0403E8
:10076000994208BF904230BD01F0004330B421F0FF
:10077000004150EA010206D00A0DA2F56072C1F3F1
:100780001301002A02DC30BC00207047440F44EA09
:10079000C104C100E01830BC00EBC25000F05BB8EF
:1007A000002801DBC0F10040002901DBC1F100415C
:1007B00081427047002801DBC0F10040002901DBC5
:1007C000C1F100418842704730B50B460146002018
:1007D0002022012409E021FA02F59D4205D303FA03
:1007E00002F5491B04FA02F52844151EA2F1010284
:1007F000F1DC30BD202A04DB203A00FA02F10020AF
:1008000070479140C2F1200320FA03F3194390404E
:100810007047202A04DB203A21FA02F000217047B9
:1008200021FA02F3D040C2F1200291400843194658
:100830007047202A06DBCB17203A41FA02F043EA40
:10084000E07306E041FA02F3D040C2F12002914089
:100850000843194670470029A8BF7047401C49004B
:1008600008BF20F00100704710B4B0FA80FC00FA15
:100870000CF050EA010404BF10BC704749B1CCF140
:10088000200421FA04F411FA0CF118BF01212143CC
:100890000843A3EB0C01CB1D4FEA00614FEA102087
:1008A00042BF002010BC704700EBC3501044002929
:1008B000A4BF10BC7047401C490008BF20F00100D5
:1008C00010BC7047420005D0C0F3C752524291425B
:1008D00001DC0020704700EBC150704710B5141EBA
:1008E00073F1000408DA401C41F1000192185B41E9
:1008F0001A4301D120F0010010BD2DE9F04D9246C0
:100900009B4611B1B1FA81F202E0B0FA80F22032D6
:100910009046FFF76FFF04460F4640EA0A0041EA9F
:100920000B0153465A46084313D0114653EA0100BF
:1009300019D0C8F140025046FFF76BFF05460E463E
:10094000504659464246FFF755FF084305D001205F
:1009500004E020463946BDE8F08D0020054346EA14
:10096000E0762C4337430A986305E40AA0EB0800BD
:100970000022FD0A44EA47540A3002D5002001460D
:10098000E9E7010510196941DDE9084500196941E8
:10099000BDE8F04DA2E770B521F0004303430CD051
:1009A000C1F30A550024D5EB040564EB0403D61704
:1009B000AD1AB34102DB0020014670BD201841EBA7
:1009C000025170BD2DE9F041054621F000400C4672
:1009D000284309D0C4F30A5040F23341884205DD70
:1009E00028462146BDE8F0812846FBE740F2FE316B
:1009F000884210DC0CDB4FEA043040EA155050EA24
:100A0000053105D0104804F0004101430020E9E71A
:100A100000200146E6E7A0F233404642C6F140021C
:100A200028462146FFF7E6FE074688462846214627
:100A30003246FFF7EEFE43463A46FFF74FFF324697
:100A4000BDE8F041FFF7D6BE0000F03F064C074D71
:100A500006E0E06840F0010394E80700984710348E
:100A6000AC42F6D3FFF746FB68BF000888BF00081A
:100A70002DE9F04D00231A461B1A8A4103DB0020A2
:100A80000146BDE8F08DC1F30A52C1F3130141F4F0
:100A900080154FF0000BD10702D100186D41521E96
:100AA0000027044640F2FF11384601EB620A3E4639
:100AB0008046024600204FF48011FFF7AAFEC219BB
:100AC0007141BB1846EB0100B4EB030C75EB000C55
:100AD00004D3E41A65EB000517460E46241908F105
:100AE00001006D4180463428E3DDF91946EB06002C
:100AF000091BA84103D24FF0FF32134601E0002248
:100B000013461BEB070046EB0A51BDE8F04DFFF71B
:100B1000E5BE0EB540F2334102910021CDE900114E
:100B20000A460B46FFF7E9FE03B000BD70B58C180E
:100B300010F8015B15F0070301D110F8013B2A11F1
:100B400006D110F8012B03E010F8016B01F8016BDE
:100B50005B1EF9D12B0705D40023521E0DD401F8DA
:100B6000013BFAE710F8013BCB1A921C03E013F8A3
:100B7000015B01F8015B521EF9D5A142D8D30020D8
:100B800070BD000008B50121084607F049FF0121AA
:100B90004FF4027007F064FF0120ADF80000002060
:100BA0008DF803006946024803F076FA08BD00009C
:100BB000000C014010B5FFF7E5FF00F001F810BD93
:100BC00000B591B03A4802F0EDF93A4806903A483B
:100BD0000790002008900220099000200A908020B1
:100BE0000B9040000C9080000D9020200E90000291
:100BF0000F900020109006A92D4802F079FA0121EB
:100C00002B4802F0C3F92B484C3800F06DF8012056
:100C100000F046F90020019001208DF808008DF8C1
:100C200009004FF4602003900020049002208DF80A
:100C3000140001A91F484C3800F098F84FF4004008
:100C400007F0E2FE0523012208211A484C3800F083
:100C5000B5F805230222112116484C3800F0AEF8F1
:100C6000012114484C3800F034F8012111484C3867
:100C700000F024F80F484C3800F0FCF800BF0D4895
:100C80004C3800F069F80028F9D10A484C3800F0D7
:100C900001F900BF07484C3800F054F80028F9D19A
:100CA000012104484C3800F0EAF811B000BD000002
:100CB000080002404C2401405C00002021B1826801
:100CC00042F00102826003E0826822F00102826049
:100CD000704721B1826842F48072826003E08268CA
:100CE00022F480728260704710B504461248844234
:100CF00008D10121401507F0C3FE0021601507F05F
:100D0000BFFE17E00D48844208D10121001507F00D
:100D1000B7FE0021201507F0B3FE0BE0084884421F
:100D200008D10121C80307F0ABFE00214FF40040B9
:100D300007F0A6FE10BD000000240140002801407D
:100D4000003C0140014600208A6802F004020AB11A
:100D5000012000E000207047014600208A6802F070
:100D600008020AB1012000E00020704730B50246B9
:100D70000020002350680F4C20400D790C6844EA95
:100D800005242043506090680B4C2040D1E9025468
:100D90002C434D7944EA450420439060D06A20F406
:100DA00070000C7C641EE4B2234340EA0350D0621E
:100DB00030BD0000FFFEF0FFFDF7F1FFF0B5044687
:100DC0000D4600200021092D11DDE068A5F10A067D
:100DD00006EB4607072606FA07F18843A5F10A063F
:100DE00006EB460603FA06F10843E0600CE02069D2
:100DF00005EB4507072606FA07F1884305EB45068C
:100E000003FA06F108432061072A0FDA606B561EC9
:100E100006EB86071F2606FA07F18843561E06EBE7
:100E2000860605FA06F10843606322E00D2A0FDA10
:100E3000206BD61F06EB86071F2606FA07F18843AC
:100E4000D61F06EB860605FA06F10843206310E07C
:100E5000E06AA2F10D0606EB86071F2606FA07F1E7
:100E60008843A2F10D0606EB860605FA06F1084353
:100E7000E062F0BD816841F008018160704721B1F6
:100E8000826842F4A002826003E0826822F4A00239
:100E900082607047816841F0040181607047000002
:100EA00030B10749096841F40001054A116005E0C5
:100EB0000349096821F40001014A116070470000EC
:100EC0000824014010B505F0B7F901202E4908703B
:100ED0000AF04AF902202C49087005F0B9FA0320FB
:100EE0002949087006F07AFE042027490870FFF7A8
:100EF00061FE0520244908704FF4964001F052FC31
:100F0000062021490870214808F05CFB07201E4993
:100F1000087007F0F5F808201B4908701C48007895
:100F200010B102201B4908600AF0DEFD012819DB20
:100F300016E04FF07E512046FFF718F904464FF4B3
:100F400000701449091D086013492046FFF732FC60
:100F500006D800201149087001201149087000E0EE
:100F6000E7E705E001200D49087000200C490870F2
:100F700009200549087007F0E3FF08F053F80A203C
:100F800009F0F8FD10BD00003F00002020A107007F
:100F9000A4000020100C01400050C3473000002086
:100FA000A600002000B58FB0FE48007878B1002080
:100FB000FC4908700721FC4800F0B8FD0721FA48F9
:100FC00000F0B4FD0721F84800F0B0FD98E3F748C1
:100FD000807900287ED0F6480078401CF4490870DB
:100FE000084600780A2876D2DFE800F075067FFA16
:100FF000F7057EF9F5F400BFEE488069EE490490EC
:10100000FFF70CF90590FFF720FB00B20E90E948BE
:101010004069E9490490FFF701F90590FFF715FBD6
:1010200000B20D90E3480069E3490490FFF7F6F839
:101030000590FFF70AFB00B20C90E0488069DE499A
:101040000490FFF7EBF80590FFF7FFFA00B20B9062
:10105000DA484069D8490490FFF7E0F80590FFF7B7
:10106000F4FA00B20A90D5480069D3490490FFF71A
:10107000D5F80590FFF7E9FA00B20990D0488069E9
:10108000CD490490FFF7CAF80590FFF7DEFA00B2E9
:101090000890CB484069C8490490FFF7BFF8059015
:1010A000FFF7D3FA00B20790C5480069C24904901F
:1010B000FFF7B4F80590FFF7C8FA00B20690DDE933
:1010C0000B23DDE90D10CDE90223CDE90410DDE9A4
:1010D000090101E0A9E1A7E1CDE90001012006A98C
:1010E0000EC900F02BFD9FE100BFB6488069B249F0
:1010F0000490FFF793F80590FFF7A7FA00B20E905F
:10110000B0484069AC490490FFF788F80590FFF7B4
:101110009CFA00B20D90AB480069A7490490FFF714
:101120007DF80590FFF791FA00B20C90A64880690F
:10113000A1490490FFF772F80590FFF786FA00B214
:101140000B90A14840699C490490FFF767F805900F
:10115000FFF77BFA00B20A909B4800699649049019
:10116000FFF75CF80590FFF770FA00B20990974816
:10117000806991490490FFF751F80590FFF765FAEF
:1011800000B20890914840698B490490FFF746F8F7
:101190000590FFF75AFA00B207908C48006986491B
:1011A0000490FFF73BF80590FFF74FFA00B2069066
:1011B000DDE90B23DDE90D10CDE90223CDE90410B3
:1011C000DDE90901CDE90001022006A90EC900F000
:1011D000B5FC29E112E178E001E077E000E000BF32
:1011E0007B48806974490490FFF718F80590FFF771
:1011F0002CFA00B20E90764840696F490490FFF7D0
:101200000DF80590FFF721FA00B20D9070480069C3
:1012100069490490FFF702F80590FFF716FA00B24B
:101220000C906C48806964490490FEF7F7FF0590C4
:10123000FFF70BFA00B20B90664840695E490490D4
:10124000FEF7ECFF0590FFF700FA00B20A90614844
:10125000006959490490FEF7E1FF0590FFF7F5F9A1
:1012600000B209905C48806953490490FEF7D6FFAC
:101270000590FFF7EAF900B20890574840694E49D7
:101280000490FEF7CBFF0590FFF7DFF900B207905F
:101290005148006948490490FEF7C0FF0590FFF7E8
:1012A000D4F900B20690DDE90B23DDE90D10CDE99C
:1012B0000223CDE90410DDE90901CDE90001032095
:1012C00006A90EC900F03AFCAEE000BF43488069B1
:1012D00039490490FEF7A2FF0590FFF7B6F900B276
:1012E0000E903E48406934490490FEF797FF059000
:1012F000FFF7ABF900B20D90384800692E49049011
:10130000FEF78CFF0590FFF7A0F900B20C9034486F
:10131000806929490490FEF781FF0590FFF795F950
:1013200000B20B902E48406923490490FEF776FFE7
:101330000590FFF78AF900B20A90294800691E4912
:101340000490FEF76BFF0590FFF77FF900B209905C
:101350002448806918490490FEF760FF0590FFF764
:1013600074F900B208901F48406913490490FEF7D1
:1013700055FF0590FFF769F900B207901948006919
:101380000D490490FEF74AFF0590FFF75EF900B2A1
:101390000690DDE90B23DDE90D10CDE90223CDE94F
:1013A000041021E09E020020E2110020D411002050
:1013B0009C0200200405002000007A4484040020E0
:1013C0000404002084060020840500200406002078
:1013D000040A00208407002004070020840900205C
:1013E000840A002004090020DDE90901CDE900019B
:1013F000042006A90EC900F0A1FB15E0AA20C149EE
:1014000008704870EF2088700120C87000200871B3
:10141000442048710621BB4800F088FB0020BA49EF
:101420000870BA49887100BF6AE1B848807818B17D
:101430000020B649887063E1B3480078401CB24987
:10144000087008460078092820D2DFE800F01F0560
:1014500020527591A9E6FD00AD48C0690D90FFF7D7
:10146000F4F80E90AB480078AA494968C9B2CDE9B2
:101470000010A94880680D90A74840680C90A648C5
:1014800000680B900CA90EC900F078FE37E1A04867
:1014900040690C90FFF7D9F800B20E909C480069A3
:1014A0000C90FFF7D2F800B20D909948007E9B4B4C
:1014B000B3F90A30DDE90D12CDE90131CDE90320A0
:1014C0009648B0F9080000909448B0F906000C90D6
:1014D0009248B0F904000B909048B0F902000A90CD
:1014E0008E48B0F9000009900AA90EC900F01AFD53
:1014F00005E18B48408A8B490B788949C989884A1C
:101500009289CDE903130292059085484089844968
:101510000989CDE90010824840880E9080480088F3
:101520000D907F48C0880C907D4880880B900CA956
:101530000EC900F045FCE2E07B48B0F900000A214A
:1015400090FBF1F080B20E907148007E77490988D7
:10155000774A1288CDE9002102907148008A0D90E7
:10156000704803780122DDE90D1000F0A9FBC6E008
:10157000704800680B90FFF768F800B20E906E4854
:101580000068FFF762F800B20D906C4840680B905D
:10159000FFF75BF80C90DDE90D1200F091FDAEE075
:1015A0006748006867490B90FEF738FE0C90FFF71C
:1015B0004CF800B20E906448006862490B90FEF748
:1015C0002DFE0C90FFF741F800B20D905F4991F8A5
:1015D00071105E4B93F8703041EA032109B25C4B05
:1015E000B3F93630DDE90D20CDE90031CDE9022037
:1015F0005748B0F934000C905548B0F932000B90C0
:101600005348B0F930000A905148B0F92E000990C3
:101610000AA90EC900F0D0FE71E04E48806A07901A
:10162000FFF713F800B20E904B48806A0790FFF75F
:101630000CF800B20D90494800680790FFF705F8D4
:1016400000B20C90464800E025E000680790FEF7E5
:10165000FCFF00B20B90394840680790FFF70EF886
:1016600080B20A903948C06C0790FEF7EEFF00B2D6
:1016700009903648806C0790FEF7E7FF00B20890AB
:10168000DDE90C120E98CDE90012029008A80FC8EF
:1016900000F028FF33E02D4840692A490990FEF701
:1016A000BDFD0A90FEF7D1FF00B20E9027480069F9
:1016B00024490990FEF7B2FD0A90FEF7C6FF00B27A
:1016C0000D902248C0681F490990FEF7A7FD0A90B7
:1016D000FEF7BBFF00B20C901C48806819490990C6
:1016E000FEF79CFD0A90FEF7B0FF00B20B900CA92C
:1016F0000EC900F003FE00200349087000BF00BFC0
:101700000FB000BDE21100209C020020D411002087
:10171000480F0020E80300207C0300205C03002029
:101720008C030020A700002060000020E6010020BC
:10173000E40100208407002030020020F403002090
:101740008405002000002041040600206C0F0020CA
:10175000A8030020840A0020040A00208409002035
:10176000040900202DE9F04104460D46002600271B
:1017700000BF04E0E05D3044C6B2781CC7B2681E0A
:10178000B842F7DC601910F8010CB04201D0BDE896
:10179000F0812078AA2802D16078AF2800D0F6E73F
:1017A000A078012806D12079042802D101207A49A5
:1017B0008876EFE0A078022828D1207901280CD182
:1017C0007648007820F040004030744908700120CD
:1017D000734988710020734908702079A02802D1CC
:1017E00001206F4988702079A128E2D109F0BCFC62
:1017F0006A48007820F040004030684908700120B5
:1018000067498871002067490870C3E0A078032801
:101810004DD10120644948705F490876207961798B
:1018200041EA00205C498880A079E17941EA002002
:101830005949C880207A617A41EA002056490880D7
:10184000A07AE17A41EA002053494880207B617BFD
:1018500041EA002050490881A07BE17B41EA002059
:101860004D494881207C617C41EA00204A498881B9
:10187000A07CE17C41EA00204749C881207D617D50
:1018800041EA002044490882A07DE17D41EA002030
:1018900041494882607E217E40EA01203E4988829B
:1018A000E07EA17E40EA01203B49C88272E0A07838
:1018B000102810D11222211D3C48FEF733FC374876
:1018C000007820F00100401C34490870A0783146AF
:1018D00000F0EAF85EE0A078112810D11222211D54
:1018E0003348FEF71FFC2D48007820F00200801CD2
:1018F0002A490870A078314600F0D6F84AE0A0786E
:10190000122816D11222211D2A48FEF70BFC2A4864
:101910002169C0F80610A18A41812048007820F092
:101920000400001D1D490870A078314600F0BCF885
:1019300030E0A078132814D11F4861680160218924
:1019400081806168C160218901821448007820F09B
:101950000800083011490870A078314600F0A4F85A
:1019600018E0A078142804D1A078314600F09CF843
:1019700010E0A078152804D1A078314600F094F842
:1019800008E0A078F12805D12079617941EA0020AA
:101990000A49088000BFFAE68C030020D20100202B
:1019A000D41100209C020020CC0100202C1000202B
:1019B0003E1000205010002062100020E6010020A0
:1019C00010B504463448007838B9AA2C05D1012056
:1019D00031490870314804705DE02F4800780128D3
:1019E00007D1AF2C05D102202B4908702B48447039
:1019F00051E029480078022807D1F12C05DA0320AC
:101A0000254908702548847045E02348007803285C
:101A10000CD1322C0ADA04201F4908701F48C47008
:101A20001F48047000201F49087034E01A480078ED
:101A3000042819D11A480078002815DD18480078C4
:101A4000401E174908701748007816490978491C44
:101A5000144A1170001D11490C5411480078D0B976
:101A600005200D49087016E00B48007805280FD1B5
:101A70000020094908700B480078001D07490C54E4
:101A800008480078401DC1B20448FFF76BFE02E031
:101A900000200149087010BDDF01002074110020F2
:101AA000DD010020DE0100202DE9F04105460F4652
:101AB00000260024AA201A4908701A4908701849FB
:101AC000487018494870EF2015498870154988708A
:101AD00002201349C8701349C87068B210490871D0
:101AE0001049087178B20E4948710E49487100BF1B
:101AF00005E00B48005D3044C6B2601CC4B2062C41
:101B0000F7DB70B2064988710649887101200649E1
:101B100008700721024807F0F7FDBDE8F0810000DA
:101B2000D3010020E21100209E02002070B504467F
:101B30000D462946204600F021FE70BD2DE9F84FE4
:101B400006460F4690469946DDF828B00024A24686
:101B5000AA222146641C594842542146641C42541E
:101B600006F10F00C2B22146641C544842540022C0
:101B70002146641C425400979DF801202146641CB4
:101B800042549DF800202146641C4254CDF8008048
:101B90009DF801202146641C42549DF800202046F7
:101BA000611CCCB245490A54CDF800909DF8012043
:101BB0002046611CCCB241490A549DF800202046C1
:101BC000611CCCB23D490A54CDF800B09DF801200B
:101BD0002046611CCCB239490A549DF800202046A9
:101BE000611CCCB235490A540B9800909DF8012035
:101BF0002046611CCCB231490A549DF80020204691
:101C0000611CCCB22D490A540C9800909DF801201B
:101C10002046611CCCB229490A549DF80020204678
:101C2000611CCCB225490A540D9800909DF8012002
:101C30002046611CCCB221490A549DF80020204660
:101C4000611CCCB21D490A540E9800909DF80120E9
:101C50002046611CCCB219490A549DF80020204648
:101C6000611CCCB215490A540F9800909DF80120D0
:101C70002146601CC4B2114842549DF80020204601
:101C8000611CCCB20D490A54201FC870002506E023
:101C90000A48405D504400F0FF0A681CC5B2A542E6
:101CA000F6DB2046611CCCB2044901F800A02146B5
:101CB0000248FFF73BFFBDE8F88F0000E21100206B
:101CC0002DE9F84F06460F4690469946DDF828B0B4
:101CD0000024A246AA222146641C384842542146C8
:101CE000641C425405222146641C425400222146B1
:101CF000641C425400969DF801202146641C425405
:101D00009DF800202146641C425400979DF8012054
:101D10002146641C42549DF800202046611CCCB230
:101D200026490A542046611CCCB2244901F800809F
:101D30002046611CCCB2214901F80090CDF800B0DA
:101D40009DF801202146601CC4B21C4842549DF8F5
:101D500000202046611CCCB218490A540B98009010
:101D60009DF801202046611CCCB214490A549DF80C
:101D700000202046611CCCB210490A542146621C46
:101D8000D4B20E4A0C985054201F1146C87000253A
:101D900006E00A48405D504400F0FF0A681CC5B2E6
:101DA000A542F6DB2046611CCCB2044901F800A034
:101DB00021460248FFF7BAFEBDE8F88FE211002085
:101DC0007FB500240026AA222146641C54484254B0
:101DD0002146641C425403222146641C42540022C2
:101DE0002146641C42549DF801202146641C425443
:101DF0009DF800202146641C42549DF80520214690
:101E0000641C42549DF804202046611CCCB2444915
:101E10000A549DF809202146601CC4B2404842542F
:101E20009DF808202046611CCCB23D490A549DF81B
:101E30000D202046611CCCB239490A549DF80C2073
:101E40002046611CCCB236490A549DF82120204618
:101E5000611CCCB232490A549DF820202046611CF6
:101E6000CCB22F490A549DF825202146601CC4B2EB
:101E70002B4842549DF824202046611CCCB22849AE
:101E80000A549DF829202046611CCCB224490A54EA
:101E90009DF828202146601CC4B2214842549DF878
:101EA0002D202046611CCCB21D490A549DF82C20DF
:101EB0002046611CCCB21A490A549DF831202046B4
:101EC000611CCCB216490A549DF830202046611C92
:101ED000CCB213490A549DF835202046611CCCB27F
:101EE0000F490A549DF834202046611CCCB20C499D
:101EF0000A54201FC870002505E00948405D3044A1
:101F0000C6B2681CC5B2A542F7DB2046611CCCB244
:101F100003490E5421460248FFF708FE7FBD00002A
:101F2000E21100202DE9F84F06460F4690469946EB
:101F3000DDF828B00024A246AA222146641C5F488E
:101F400042542146641C425402222146641C4254DD
:101F500000222146641C425400969DF8012021462F
:101F6000641C42549DF800202146641C4254009792
:101F70009DF801202146641C42549DF80020204613
:101F8000611CCCB24D490A54CDF800809DF8012067
:101F90002046611CCCB249490A549DF800202046D5
:101FA000611CCCB245490A54CDF800909DF801203F
:101FB0002046611CCCB241490A549DF800202046BD
:101FC000611CCCB23D490A54CDF800B09DF8012007
:101FD0002046611CCCB239490A549DF800202046A5
:101FE000611CCCB235490A540B9800909DF8012031
:101FF0002046611CCCB231490A549DF8002020468D
:10200000611CCCB22D490A540C9800909DF8012017
:102010002046611CCCB229490A549DF80020204674
:10202000611CCCB225490A540D9800909DF80120FE
:102030002046611CCCB221490A549DF8002020465C
:10204000611CCCB21D490A540E9800909DF80120E5
:102050002046611CCCB219490A549DF80020204644
:10206000611CCCB215490A54002000909DF8012053
:102070002046611CCCB211490A549DF8002020462C
:10208000611CCCB20D490A54201FC870002506E01F
:102090000A48405D504400F0FF0A681CC5B2A542E2
:1020A000F6DB2046611CCCB2044901F800A02146B1
:1020B0000248FFF73BFDBDE8F88F0000E211002069
:1020C000F7B500240026AA222146641C2A4842545F
:1020D0002146641C425407222146641C42540022BB
:1020E0002146641C42549DF803202146641C42543E
:1020F0009DF802202146641C42549DF8012021468F
:10210000641C42549DF800202146601CC4B21A4849
:1021100042549DF805202046611CCCB216490A5451
:102120009DF804202046611CCCB213490A549DF846
:1021300009202046611CCCB20F490A549DF80820A2
:102140002046611CCCB20C490A54201FC8700025DF
:1021500005E00948405D3044C6B2681CC5B2A542DE
:10216000F7DB2046611CCCB203490E5421460248DD
:10217000FFF7DCFCFEBD0000E21100202DE9FE4F60
:1021800082460E4617469846DDF830B00024CDF85A
:102190000480A146AA222146641C53484254214689
:1021A000641C425401222146641C425400222146F0
:1021B000641C42544D495046FEF730F80090FEF73B
:1021C00044FA00B202909DF809202146641C46485A
:1021D00042549DF808202146641C4254434930462D
:1021E000FEF71CF80090FEF730FA00B202909DF85E
:1021F00009202146641C3C4842549DF80820214691
:10220000601CC4B23848425404E039493846FDF7EE
:10221000FFFF074637493846FEF7CCFAF5D304E00E
:1022200033493846FDF7A2FF074633493846FEF7E3
:10223000B7FAF5D32D493846FDF7F0FF0090FEF7C9
:1022400004FA00B202909DF809202146601CC4B235
:10225000254842549DF808202046611CCCB22249F2
:102260000A549DF807202046611CCCB21E490A542E
:102270009DF806202046611CCCB21B490A549DF8EB
:1022800005202046611CCCB217490A549DF8042051
:102290002046611CCCB214490A542046611CCCB2C1
:1022A000114901F800B02146621CD4B20E4A0D98C3
:1022B0005054201F1146C870002506E00A48405DB2
:1022C000484400F0FF09681CC5B2A542F6DB204671
:1022D000611CCCB2044901F8009021460248FFF786
:1022E00025FCBDE8FE8F0000E21100200000C8427E
:1022F0000000B44300003443000034C37FB5002421
:102300000026AA222146641C2A4842542146641C05
:102310004254F1222146641C425400222146641C8E
:1023200042549DF801202146641C42549DF800202F
:102330002146641C42549DF805202146641C4254E9
:102340009DF804202146601CC4B21A4842549DF8EE
:1023500009202046611CCCB216490A549DF8082079
:102360002046611CCCB213490A549DF80D2020462A
:10237000611CCCB20F490A549DF80C202046611C08
:10238000CCB20C490A54201FC870002505E009484A
:10239000405D3044C6B2681CC5B2A542F7DB20469A
:1023A000611CCCB203490E5421460248FFF7BEFB24
:1023B0007FBD0000E21100207FB500240026AA2284
:1023C0002146641C464842542146641C425409225A
:1023D0002146641C425400222146641C42549DF84C
:1023E00001202146641C42549DF800202146641CB3
:1023F00042549DF805202146641C42549DF8042057
:102400002046611CCCB236490A549DF8092020466A
:10241000611CCCB232490A549DF808202046611C48
:10242000CCB22F490A549DF80D202046611CCCB235
:102430002B490A549DF80C202046611CCCB2284937
:102440000A549DF821202046611CCCB224490A542C
:102450009DF820202046611CCCB221490A549DF8E9
:1024600025202046611CCCB21D490A549DF8242029
:102470002046611CCCB21A490A549DF829202046F6
:10248000611CCCB216490A549DF828202046611CD4
:10249000CCB213490A549DF82D202046611CCCB2C1
:1024A0000F490A549DF82C202046611CCCB20C49DF
:1024B0000A54201FC870002505E00948405D3044DB
:1024C000C6B2681CC5B2A542F7DB2046611CCCB27F
:1024D00003490E5421460248FFF728FB7FBD000048
:1024E000E21100202DE9F84F06460F469046994626
:1024F000DDF828B00024A246AA222146641C4748E1
:1025000042542146641C42540B222146641C42540E
:1025100000222146641C425400969DF80120214669
:10252000641C42549DF800202146641C42540097CC
:102530009DF801202146641C42549DF8002020464D
:10254000611CCCB235490A540FFA88F000909DF80E
:1025500001202046611CCCB230490A549DF800206D
:102560002046611CCCB22D490A54CDF800909DF84C
:1025700001202146601CC4B2284842549DF8002026
:102580002046611CCCB225490A54CDF800B09DF814
:1025900001202046611CCCB220490A549DF800203D
:1025A0002046611CCCB21D490A540B9800909DF83E
:1025B00001202146601CC4B2184842549DF80020F6
:1025C0002046611CCCB215490A540C9800909DF825
:1025D00001202046611CCCB210490A549DF800200D
:1025E0002046611CCCB20D490A54201FC87000253A
:1025F00006E00A48405D504400F0FF0A681CC5B27E
:10260000A542F6DB2046611CCCB2044901F800A0CB
:1026100021460248FFF78AFABDE8F88FE211002050
:1026200070B5072005F01CFD044604F0400098B189
:10263000602005F015FD0546212D08DA2A460E49D1
:10264000612005F0EBFC00200C49088003E0FF212D
:10265000E22005F03DFD00BF04F0100030B104F0B1
:10266000010018B1FF21E12005F032FD21462720AD
:1026700005F02EFD70BD0000B00D0020AA00002066
:1026800070B504460D464FF4807039490860052244
:1026900038492A2005F0FAFC05223749302005F098
:1026A000F5FC0121212005F013FD0121222005F078
:1026B0000FFD1A21242005F00BFD2946252005F0E9
:1026C00007FD0F21262005F003FD012C08D1202154
:1026D000312005F0FDFC0F21202005F0F9FC41E040
:1026E000022C08D12021312005F0F2FC0E212020FF
:1026F00005F0EEFC36E0032C1AD1FF21E12005F0B5
:10270000E7FCFF21E22005F0E3FC0F21202005F08B
:10271000DFFC502006F02AFB732006F027FB012186
:102720003C2005F0D5FC06213D2005F0D1FC19E048
:102730000E21202005F0CCFCFF21E12005F0C8FC93
:10274000FF21E22005F0C4FC502006F00FFB7320AF
:1027500006F00CFB01213C2005F0BAFC06213D20CF
:1027600005F0B6FC4FF480700149091F086070BD88
:102770001408014075BD000870BD000870B504461E
:102780000D464FF48070064908602A462146A8206D
:1027900005F07CFC4FF480700149091F086070BD92
:1027A0001408014010B588B004460121880306F0E2
:1027B00057F90121084606F053F90121042006F0DB
:1027C0004FF94FF40070ADF8040003208DF80600B7
:1027D00018208DF8070001A9254801F05DFC4FF491
:1027E0008060ADF8040003208DF8060048208DF8C5
:1027F000070001A91E4801F04FFC04940020ADF829
:102800001400ADF81600ADF81800ADF81C000C204F
:10281000ADF81A000020ADF80800ADF80A004FF43A
:102820000070ADF80C000020ADF80E0004A91148AE
:1028300006F0D2FF02A90F4806F07EFF012240F207
:1028400025510C4806F0A2FF01210A4806F085FF39
:1028500025208DF8000005208DF8010001208DF85D
:1028600002008DF80300684605F0DAFC08B010BDE0
:10287000000801400038014010B5044607480178BF
:102880000078401C054A107005484454012240F26B
:102890002771044806F07AFF10BD00006D0000208B
:1028A000580B00200038014010B504460FE0207896
:1028B0000D2802D1FFF7E0FF08E020780A2802D1B6
:1028C000FFF7DAFF02E02078FFF7D6FF641C2078DC
:1028D0000028ECD110BD00002DE9F04F89B007466B
:1028E000022603AC4FF000084FF000094FF0000A39
:1028F000162F7CD2DFE807F07BFBCF9B7BF999DCBE
:102900007B7B7B7B7B7B7B7B0B1219202728DFF873
:102910004C83DFF84C93DFF84CA316E0DFF84883D4
:10292000DFF84893DFF848A30FE0DFF84883DFF8CB
:102930004893DFF848A308E0DFF84483DFF84493C6
:10294000DFF844A301E000BF00BFB8F1000F20D0C2
:10295000D8F81000CD49FDF761FC8346FDF775FE00
:1029600000B2ADF81000D8F81400C849FDF756FCC5
:102970008346FDF76AFE00B2ADF81200D8F81800E1
:10298000C249FDF74BFC8346FDF75FFE00B2ADF890
:102990001400B9F1000F20D0D9F81000BB49FDF7A1
:1029A0003DFC8346FDF751FE00B2ADF81600D9F8A4
:1029B0001400B649FDF732FC8346FDF746FE00B22F
:1029C000ADF81800D9F81800B049FDF727FC834688
:1029D000FDF73BFE00B2ADF81A00BAF1000F22D0AD
:1029E000DAF81000A949FDF719FC834600E0FEE083
:1029F000FDF72BFE00B2ADF81C00DAF81400A34975
:102A0000FDF70CFC8346FDF720FE00B2ADF81E007A
:102A1000DAF818009D49FDF701FC8346FDF715FE25
:102A200000B2ADF820001226E2E00826E0E0984867
:102A3000808800B2ADF810009548C08800B2ADF8AB
:102A400012009348008800B2ADF814009048408806
:102A500000B2ADF816008E48008900B2ADF818003B
:102A60008B48408900B2ADF81A008948808900B2CD
:102A7000ADF81C008648C08900B2ADF81E0084483D
:102A8000008A00B2ADF820008148408A00B2ADF85B
:102A900022001426ACE020227E4904A8FDF742FB68
:102AA0007D48016807918088ADF8200012269FE0DC
:102AB0007A480078012805D17949C868FDF7C5FD35
:102AC000029001E000200290BDF80A00ADF810006D
:102AD000BDF80800ADF8120071498868FDF7CEFD19
:102AE00000B2ADF81400062682E07FE0FFE76B48F5
:102AF0000078012805D16A494868FDF7A6FD0290D3
:102B000001E0002002906748006880F000406649BC
:102B10000190FDF783FB8346FDF797FD00B2ADF80A
:102B20001000604948686049FDF778FB8346FDF76F
:102B30008CFD00B2ADF812005A48806880F0004069
:102B400059490190FDF76AFB8346FDF77EFD00B20F
:102B5000ADF81400BDF80A00ADF81600BDF8080085
:102B6000ADF818005148807830B1012808D002280B
:102B700014D003282ED11FE000204D4948602DE0DD
:102B80004B480078012804D140F2011048494860C0
:102B900003E04FF48070464948601FE044480078E5
:102BA000012804D140F201204149486003E04FF47C
:102BB00000703F49486011E03D480078012804D189
:102BC00040F201303A49486003E04FF44070384920
:102BD000486003E000203649486000BF00BF344829
:102BE000406800B2ADF81A000C2601E000E000BF1A
:102BF00000BF4AF6AA20ADF80C0046EA072000B252
:102C0000ADF80E005421301D215402251AE0605702
:102C1000691C615648406055681C20566157484001
:102C2000691C60546057615648406055615D681C7E
:102C3000205C0144301D205C084441B2301D215409
:102C4000A81CC5B2301D8542E1DB701DC1B2204613
:102C500006F05AFD09B0BDE8F08F00000404002022
:102C600084040020040500200406002084050020C0
:102C7000840600200407002084070020040A0020A6
:102C800004090020840A00208409002000007A44FE
:102C90008C0300205C030020320000203000002064
:102CA000F40300207C0300200000C8423C00002008
:102CB000E80300202DE9F8438C48007820B1012872
:102CC00006D002287ED117E00120884908700AE169
:102CD0008748007818B10220844908700BE0022070
:102CE000FFF7FAFD0120FFF7F7FD0320FFF7F4FDE2
:102CF0000720FFF7F1FDF6E07D48007810B90120CC
:102D00007A4908707A480078C0F3801088B11020A2
:102D1000FFF7E2FD1120FFF7DFFD1220FFF7DCFDDA
:102D20001320FFF7D9FD7248007820F04000704969
:102D300008706F48007800F03F0000287ED0002522
:102D4000002600276A48007800F0010050B1694D64
:102D5000694E6A4F6A4C6648007820F00100644969
:102D6000087031E062480078C0F3400050B1654D12
:102D7000654E664F664C5E48007820F002005C4964
:102D8000087021E05A480078C0F3800050B1614DCE
:102D9000614E624F624C5648007820F0040054495E
:102DA000087011E052480078C0F3C00058B15D4D82
:102DB0005D4E5E4F5E4C4E48007820F008004C4956
:102DC000087001E08EE08EE065B320788DF8010098
:102DD00060788DF80000BDF80000FDF720FC80460B
:102DE0005449FDF74DFA2861A0788DF80100E0788C
:102DF0008DF80000BDF80000FDF711FC80464D493C
:102E0000FDF73EFA686120798DF8010060798DF850
:102E10000000BDF80000FDF702FC80464549FDF7C3
:102E20002FFAA86176B3A0798DF80100E0798DF8CA
:102E30000000BDF80000FDF7F2FB00E051E0804625
:102E40003C49FDF71DFA3061207A8DF80100607A67
:102E50008DF80000BDF80000FDF7E1FB8046354924
:102E6000FDF70EFA7061A07A8DF80100E07A8DF816
:102E70000000BDF80000FDF7D2FB80462D49FDF7AC
:102E8000FFF9B06167B3207B8DF80100607B8DF89E
:102E90000000BDF80000FDF7C2FB80462549FDF7A4
:102EA000EFF93861A07B8DF80100E07B8DF8000020
:102EB000BDF80000FDF7B3FB80461E49FDF7E0F9C1
:102EC0007861207C8DF80100607C8DF80000BDF8F1
:102ED0000000FDF7A4FB80461649FDF7D1F9B86163
:102EE00000BF00E000BF00BFBDE8F883DC010020A8
:102EF000D2010020040400208404002004050020E6
:102F00002C100020040600208405002084060020E8
:102F10003E1000200407002084070020040A00203F
:102F20005010002004090020840A00208409002099
:102F30006210002000007A4400BFFEE770B506462C
:102F40000C4615462946204608F0D8F8A06A30609D
:102F50002946304608F0D2F870BD000009480079D3
:102F600078B10848C07860B10020064908714FF474
:102F700000700549086002200860C0010860082050
:102F8000086070478C000020100C014021B10268DD
:102F900042F00102026004E002684FF6FE731A403C
:102FA0000260704701684FF6FE7211400160002117
:102FB000016041608160C1604B49884208D14A4943
:102FC0000839496841F00F01474A083A51608AE0E0
:102FD00045491431884208D143490839496841F0CC
:102FE000F001414A083A51607DE03F49283188426A
:102FF00008D13D490839496841F470613A4A083AB4
:10300000516070E038493C31884208D1364908396E
:10301000496841F47041344A083A516063E03249EA
:103020005031884208D130490839496841F470214B
:103030002D4A083A516056E02B496431884208D144
:1030400029490839496841F47001274A083A516012
:1030500049E025497831884208D12349083949682F
:1030600041F07061204A083A51603CE01F498842B3
:1030700006D1011F096841F00F01021F116032E003
:103080001A491431884208D11849091F096841F0CA
:10309000F001164A121F116025E0144928318842B8
:1030A00008D11249091F096841F470610F4A121FC3
:1030B000116018E00D493C31884208D10B49091FC5
:1030C000096841F47041094A121F11600BE0074979
:1030D0005031884207D10549091F096841F4702120
:1030E000024A121F116070470800024008040240A3
:1030F00010B50022026847F6F0739A430C6A8B6899
:1031000023430C6923434C6923438C692343CC69D3
:1031100023434C6A23438C6A23431A430260CB68DF
:1031200043600B6883604B68C36010BD704700004C
:103130002DE9F04108F064FC08F09AFC1D49086094
:1031400008F028FC08F09AFB1B4908600846016853
:103150001A48FDF75DF804461949FDF791F8194939
:103160000860154801681548FDF752F807461649EA
:10317000FDF754F806461549FDF750F80446114886
:1031800001681348FDF74AF807460E4801683846BB
:10319000FDF744F806460B4801683046FDF73EF857
:1031A00005462146FCF7E2FF0A4908600846006828
:1031B000BDE8F0811C010020200100200044C5472B
:1031C00000007A4414010020EC51B83D0000C842D0
:1031D00085EB513F1801002023490978234A1170DB
:1031E0000021214A117022490978224A11700021D8
:1031F0001F4A117020490978204A117000211E4A87
:1032000011701F4909781F4A117000211C4A117062
:103210001A4909780A2903DD00211B4A117005E0CB
:1032200000211A4A11700121174A117015490978B5
:103230000A2903DD0021164A117002E00121144A17
:1032400011700021134A1160002009E0124951F861
:103250002010104A126811440E4A1160411CC8B275
:103260000628F3DB70470000A8000020A70000201C
:103270008F0200208E0200200B0100200A01002096
:103280000F0100200E0100200C0100200D01002084
:1032900010010020240000200403002010B501F0DC
:1032A00053FC0C49C8600C4805F040F90A4800F08E
:1032B00089FA0A4802F06AFB0A2002F0A9FC0648D3
:1032C00001F066FC01F040FC0249C968401A01495E
:1032D000C86010BD04030020A69BC43B0AD7233C52
:1032E00010B501F031FC07490861FFF7E3FCFDF779
:1032F00059FE01F029FC03490969401A0149086196
:1033000010BD00000403002010B501F01DFC0949A8
:10331000086004F0BFF9084800F0B4F903F080FD3C
:10332000FFF71CFE01F010FC02490968401A014930
:10333000086010BD040300206F12033B10B501F0BC
:1033400003FC09494860FFF76BF905F085FC074865
:1033500003F0D2F805F00EFC01F0F6FB02494968D3
:10336000401A0149486010BD040300206F12833BDE
:1033700010B501F0E9FB0849486104F095FF00F041
:1033800005F906F0A1FA01F0DFFB03494969401A8B
:103390000149486110BD00000403002010B501F090
:1033A000D3FB07498860074A0749084800F050FFE7
:1033B00001F0CAFB02498968401A0149886010BDC2
:1033C00004030020A69BC43B7C0300205C03002078
:1033D0000149C860704700000020024030B5044633
:1033E00004254FF4302000F06FF80546042D17D166
:1033F0000C48006940F002000A490861084644612F
:10340000006940F0400008614FF4302000F05CF8A3
:1034100005460448006941F6FD710840014908610C
:10342000284630BD0020024004200B49C96801F045
:10343000010109B101200EE00749C96801F004014A
:1034400009B1022007E00449C96801F0100109B17F
:10345000032000E004207047002002400348006978
:1034600040F08000014908617047000000200240E0
:1034700070B504460D460426F00200F025F8064615
:10348000042E11D10948006940F001000749086184
:103490002580F00200F018F806460448006941F65D
:1034A000FE71084001490861304670BD00200240AD
:1034B0000248034948600348486070472301674554
:1034C00000200240AB89EFCD00B502460423FFF790
:1034D000ABFF034603E0FFF7A7FF0346521E012B95
:1034E00001D1002AF7D102B90523184600BD00001A
:1034F000094A0A4B1A6009E0084A126812880280D9
:10350000801C064A1268921C044B1A600A00A1F142
:103510000103D9B2F0D1704700F400087C0000200C
:1035200070B504460D46FFF7C3FF3420FFF750FF88
:103530000120134908601348FFF750FF042801D009
:1035400000BFFEE70F481049086010E0208881B2F4
:103550000D480068FFF78CFF042806D1A41C0A4818
:103560000068801C0849086001E000BFFEE72800F1
:10357000A5F10101CDB2E9D1FFF770FF70BD0000E8
:103580008000002000F400087C0000200020334967
:1035900008803348007820B90846008840F00100D0
:1035A00008803048007828B92C48008840F0020094
:1035B0002A4908802C48007828B92848008840F01B
:1035C0000400264908802948007828B1234800884B
:1035D00040F00800214908802548007828B91F4894
:1035E000008840F010001D4908802248007828B962
:1035F0001A48008840F04000184908801E480078AA
:10360000C0B11E488088B0F5966F13DD1C48B0F934
:10361000000040F6EE4188421FDA1948B0F9000078
:10362000B0F57A7F19DD0D48008840F020000B4985
:10363000088012E01248B0F9000040F6B651884206
:103640000BDA0F48B0F90000B0F57A7F05DD0348CA
:10365000008840F02000014908807047E401002004
:10366000A4000020A6000020A500002009010020E1
:103670000C01002010010020E80300208C03002032
:103680006000002070B5044642480078012806D04A
:103690000B280BD01F2817D0FF286FD165E03E48BC
:1036A000007810B10B203B4908706BE00C213B48BF
:1036B00007F00EFD00203A494862086039498860E9
:1036C0001F20344908705DE03749B1F90600FCF766
:1036D0009DFF0546354801682846FCF79FFD3449A3
:1036E00048623149B1F90800FCF790FF05462F48C0
:1036F00001682846FCF792FD2E4948622A49B1F933
:103700000A00FCF783FF0546284801682846FCF7B5
:1037100085FD294948622348406828494862214874
:103720000068274948621F4880681D494862214651
:10373000234807F0E3FC2248806A1D4908602146BF
:103740001B4807F0DBFC21461C4807F0D7FC1B4850
:10375000806A184908602146164807F0CFFC2246C7
:103760000F491548FFF7EAFB0CE008210B4807F06A
:10377000AFFC01200749087004E0FFE7FF2005497E
:10378000087000BF00BF0448007810B9FF2001494D
:10379000087070BD75020020E8030020FC010020C5
:1037A000840600207C0300205C03002088BD000804
:1037B0000404002084040020040500208405002067
:1037C000040600202DE9FF5F82464FF0320BD348FC
:1037D000407E01287BD1D149C869D149FCF7EAFF75
:1037E00075D2CE49C869CF49FCF7DAFFF8D2CE4886
:1037F000B0F9240040F20E61884214DCCA48B0F9E6
:10380000240040F2AA5188420DDBC748B0F92200DB
:1038100040F20E61884206DCC348B0F9220040F253
:10382000AA5188427EDA0120C0490870C048007859
:10383000FA2804DABE480078401CBD490870BC482C
:1038400000781E2844DABB494988A1F2DC50FCF715
:10385000EBFE80460022B84BFCF7F7FD0646B74A60
:10386000B74BFCF7F2FDCDE90201B6490868FCF759
:1038700038FFCDE90001DDE90223FCF7E0FD044655
:10388000FCF772FFAF490860AA490988A1F2DC5031
:10389000FCF7CAFE0022A84BCDE90001FCF7D5FDDC
:1038A000A64AA74BCDE90201FCF7CFFD8046894629
:1038B000A5490868FCF715FF064642464B46FCF74B
:1038C000BEFD0446FCF750FF9F49086047E009E150
:1038D00098494988A1F2DC50FCF7A6FE4FF033323C
:1038E0009A4BCDE90001FCF7B0FD0646934A944B94
:1038F000FCF7ABFD04460D4692490868FCF7F1FE63
:1039000022462B46CDE90201FCF799FD8046FCF7E3
:103910002BFF8C49086087490988A1F2DC50FCF72D
:1039200083FE00E022E006464FF03332874BFCF77F
:103930008CFD8046814A824BFCF787FDCDE9000172
:1039400081490868FCF7CDFE0446DDE90023FCF759
:1039500076FDCDE90201FCF707FF7B4908607C4852
:10396000007802282BD007F08BF928E0002070495E
:1039700008706E480078012805D100206B49087056
:1039800064207449088073480088002817DD714856
:103990000088401E6F4908800846008848B9012009
:1039A0006D4981F864006748006888666648006869
:1039B000C86667480078012801D007F029F96648F1
:1039C000C06C6149486251465F4807F097FB624806
:1039D000806C5C49486251465A4807F08FFB5A494F
:1039E000886A5E49FCF7DCFE01D25C4809E0564972
:1039F000886A5B49FCF7DEFE01D2594801E0524873
:103A0000806A584908604F49886A5449FCF7C8FEE3
:103A100001D2524809E04B49886A5149FCF7CAFE75
:103A200001D24F4801E04748806A4F4908603F484B
:103A3000007800281CDD4849486DFCF752FE064618
:103A40004A4A4B4BFCF701FD0446FCF78DFE454905
:103A500048624149086DFCF744FE0646434A444B20
:103A6000FCF7F3FC0446FCF77FFE3F49486230E078
:103A70003848008801281CDD3749486DFCF731FEC5
:103A800006463A4A3A4BFCF7E0FC0446FCF76CFE6B
:103A9000344948623049086DFCF723FE0646334A34
:103AA000334BFCF7D2FC0446FCF75EFE2E4948621D
:103AB0000FE0244A1168284A906CFCF7A9FB2A49B8
:103AC0004862214A1168244AD06CFCF7A1FB2549C1
:103AD00048625146234807F011FB5146224807F03F
:103AE0000DFB18E000200D498860C8601A49C864C1
:103AF0008864486508651C4988621A4988621D49BE
:103B000008601D490860144988640E49086012491C
:103B1000C8640D490860BDE8FF9F0000480F002001
:103B20000000A0410000C843A80300204E0200206E
:103B3000740200208C0300200000D03F7B14AE47AD
:103B4000E17A843F04090020840900203333D33F05
:103B5000400000204C0200206C0F002000007AC4BE
:103B600000007A44840A0020040A0020B81E85EB75
:103B700051B8AE3F6C020020700200202DE9F04FDA
:103B800087B08246002006909848007820B101282E
:103B900016D002287ED127E0BAF1FE0F0CD1012009
:103BA00092490870924801780078401C904A107041
:103BB000904800F801A002E000208C49087011E153
:103BC000BAF1040F0CD102208849087088480178A6
:103BD0000078401C864A1070864800F801A002E078
:103BE000002082490870FDE0814801780078401C7F
:103BF0007F4A10707F4800F801A0104600780B281B
:103C00007ED1002079490870114608707948807883
:103C10007849C97808447749097908447549497948
:103C200008447449897908447249C9790844C0B282
:103C30000690BAF1AA0FE3D16E48017A0698814244
:103C4000DED16D480078401C6B4908706949C9781D
:103C5000090209B2674A927811434842FCF7D6FC40
:103C60006649086063494979090209B2614A1279D3
:103C700041EA0200FCF7CAFC604948605D48407AAE
:103C800008765C49C979090209B25A4A927941EA2F
:103C9000020000E0A0E0FCF7B9FC5849C861C8691F
:103CA000FCF71FFD06460022554BFCF740FC04467E
:103CB000FCF75AFD5149C8615248534908604F49C1
:103CC000C86952490968FCF7A3FA8346FCF709FD65
:103CD00006464F4A4F4BFCF7B8FB04460D464B488F
:103CE0000068FCF7FEFC804622462B46FCF706FBEC
:103CF000CDE90401FCF738FD44490860464900E07D
:103D000062E042480068FCF783FA43490190FCF7FF
:103D1000B7FA8346FCF7E5FC80463D4A3D4BFCF78D
:103D200094FB00223D4BCDE90201FCF7E7FA064681
:103D30000F4635480068FCF7D4FC32463B46CDE9D7
:103D40000401FCF782FB0446FCF70EFD2E490860D7
:103D50002A4A11681069FCF709FA284908610A46DD
:103D600051685069FCF702FA2449486108682649FD
:103D70000968FCF753FA2149086048682249096834
:103D8000FCF74CFA1D4948600A4611689068FCF738
:103D9000EDF91A4988600A465168D068FCF7E6F9DF
:103DA0001649C8600846007E19280EDA1C480078BB
:103DB000401C1B490870084600783C280BDD3C205D
:103DC000087000200D49487605E00020144908706D
:103DD00001200A49487605E000200449087004499A
:103DE000087000BF00BF07B0BDE8F08FC101002020
:103DF000C0010020E00F00200F010020480F00202C
:103E000000002440AE4FDA3DB8010020C40100207C
:103E10009A9999999999B93F000048420000F03F5A
:103E2000C20100202DE9F0418848407E012871D16F
:103E30008649C8698649FCF7BDFC6BD28349C869CD
:103E40008449FCF7ADFCF8D28349886AFCF749FC49
:103E50000646824A824BFCF7F8FA0446FCF784FCDB
:103E6000804908608049886AFCF73BFC06467B4A2B
:103E70007B4BFCF7EAFA0446FCF776FC7B490860CA
:103E80007B48008838B3774908687A49FCF788FC92
:103E900001D2784809E0734908686D49FCF78AFC4B
:103EA00001D26B4801E06F4800686E4908606F49B5
:103EB00008687049FCF774FC01D26E4809E06B4950
:103EC00008686349FCF776FC01D2614801E0674865
:103ED0000068664908606848007848B36149086826
:103EE0006649FCF75DFC01D2644809E05D49086859
:103EF0006349FCF75FFC01D2614801E05948006862
:103F000058490860594908685C49FCF749FC02D2E5
:103F10005A480AE059E0554908685949FCF74AFCF3
:103F200001D2574801E0514800685049086027E035
:103F30004C4908685349FCF733FC01D2514809E069
:103F4000484908685049FCF735FC01D24E4801E069
:103F50004448006843490860444908684949FCF7F7
:103F60001FFC01D2474809E0404908684649FCF770
:103F700021FC01D2444801E03C4800683B4908600C
:103F80004249B1F91C104842FCF740FB0546404944
:103F9000FCF744F90446334801682046FCF7E6F88C
:103FA000304908603949B1F91A104842FCF72EFB34
:103FB00005463749FCF732F904462C48016820468B
:103FC000FCF7D4F8294908603DE03249498840F2BD
:103FD000DC52501AFCF71AFB04462D49FCF71EF977
:103FE000204908602B49098840F2DC52501AFCF73E
:103FF0000DFB04462649FCF711F91C4908602349CA
:10400000B1F91C104842FCF701FB05462049FCF7BA
:1040100005F90446134801682046FCF7A7F8114942
:1040200008601A49B1F91A104842FCF7EFFA054640
:104030001749FCF7F3F804460C4801682046FCF7E2
:1040400095F80A490860BDE8F0810000480F00209B
:104050000000A0410000C843040A00209A999999E1
:104060009999B93F84050020840A002004060020A5
:104070004C0200200000A0C14E0200200000C8C178
:104080000000C841000070C100007041A80300207A
:104090000AD7233D8C0300202DE9F041024600257C
:1040A0000026002000230024002791F803C00CF014
:1040B0000F0591F803C00CF0100CBCF1000F03D0F9
:1040C00091F802C04CEA050591F800C0BCF1000F60
:1040D00031D0146800202BE04FF0010C0CFA00F3F3
:1040E000B1F800C00CEA03069E4220D183004FF0D5
:1040F0000F0C0CFA03F7BC4305FA03FC4CEA04046A
:1041000091F803C0BCF1280F06D14FF0010C0CFA56
:1041100000FCC2F814C00AE091F803C0BCF1480FDB
:1041200005D14FF0010C0CFA00FCC2F810C0401C85
:104130000828D1D31460B1F800C0BCF1FF0F34DD02
:10414000546800202EE000F1080C4FF0010808FA36
:104150000CF3B1F800C00CEA03069E4221D18300A3
:104160004FF00F0C0CFA03F7BC4305FA03FC4CEAC2
:10417000040491F803C0BCF1280F05D100F1080C2C
:1041800008FA0CF8C2F8148091F803C0BCF1480F8B
:1041900007D100F1080C4FF0010808FA0CF8C2F83A
:1041A0001080401C0828CED35460BDE8F081000088
:1041B000F0B50A46002300240021002500F0004647
:1041C000B6F1004F02D11D4EF16901E01B4E71683E
:1041D000C0F3034583B200F44016B6F5401F08D182
:1041E00021F07061154E766826F07066134F7E6080
:1041F00012E000F48016B6F5801F06D1032606FAF9
:1042000005F4A14341F0706106E0460D360103FA62
:1042100006F6B14341F0706122B1460D360103FA52
:1042200006F6314300F00046B6F1004F02D1034ECE
:10423000F16101E0014E7160F0BD0000000001403D
:10424000016170470148006870470000A00200202B
:1042500007B59EB04FF07C512098FBF7DFFF0C9024
:10426000FE4880680890FD48006807900899FBF7B1
:10427000D5FF0A90F948C0680890F8484068079050
:104280000899FBF7CBFF09900A99FBF7C1FF4FF0A4
:1042900080410B90FBF7C2FF1B90F048C06808906C
:1042A000EE48806807900899FBF7B8FF0A90EB4842
:1042B00040680890E948006807900899FBF7AEFF4E
:1042C00009900A99FBF752FF4FF080410B90FBF7E2
:1042D000A5FF1C90E14880680790E0488068069040
:1042E0000799FBF79BFF0990DC4840680790DB4883
:1042F000406806900799FBF791FF08900999FBF732
:1043000035FF4FF080410A90FBF788FF4FF07E5158
:104310000B90FBF780FF1D90D148B0F90400069088
:10432000FCF774F90890CE48B0F904000690FCF749
:104330006DF907900899FBF771FF0A90C848B0F92A
:1043400002000490FCF762F90690C548B0F902003B
:104350000490FCF75BF905900699FBF75FFF089066
:10436000BF48B0F900000490FCF750F90690BC4833
:10437000B0F900000490FCF749F905900699FBF7A5
:104380004DFF07900899FBF7F1FE09900A99FBF79A
:10439000EDFE0B9004F010FB0D901E98B0F900009C
:1043A0000A90FCF733F90B900D99FBF737FF189043
:1043B0001E98B0F902000A90FCF728F90B900D99AD
:1043C000FBF72CFF19901E98B0F904000A90FCF737
:1043D0001DF90B900D99FBF721FF1A901C9809907D
:1043E0001A9808900999FBF719FF0B901D980990EE
:1043F000199808900999FBF711FF0A900B99FBF7A0
:1044000007FF12901D980990189808900999FBF7DA
:1044100005FF0B901B9809901A9808900999FBF7D3
:10442000FDFE0A900B99FBF7F3FE13901B98099081
:10443000199808900999FBF7F1FE0B901C980990C8
:10444000189808900999FBF7E9FE0A900B99FBF779
:10445000DFFE149012980A90824801680A98FBF7D0
:10446000DDFE0B908048006801460A900B98FBF730
:104470007DFE7D49086013980A907A4801680A9881
:10448000FBF7CCFE0B907848406801460A900B98E9
:10449000FBF76CFE7449486014980A9071480168F3
:1044A0000A98FBF7BBFE0B906F48806801460A90A4
:1044B0000B98FBF75BFE6C498860129801460890E8
:1044C0006A480068FBF7AAFE0A901E98B0F9060039
:1044D0000790FCF79BF80890654801680898FBF77F
:1044E0009DFE09900A99FBF741FE0B905E4800681B
:1044F00001460A900B98FBF739FE15901398014678
:1045000008905A480068FBF789FE0A901E98B0F997
:1045100008000790FCF77AF8089055480168089859
:10452000FBF77CFE09900A99FBF720FE0B904E48A2
:10453000406801460A900B98FBF718FE16901498F5
:104540000146089049480068FBF768FE0A901E98EB
:10455000B0F90A000790FCF759F808904448016840
:104560000898FBF75BFE09900A99FBF7FFFD0B909B
:104570003D48806801460A900B98FBF7F7FD1790BD
:10458000179808903548C06807900899FBF746FED1
:104590000A90169806903148806805900699FBF7B6
:1045A0003DFE08902D48406880F000400690159828
:1045B000014605900698FBF731FE07900899FBF736
:1045C00027FE09900A99FBF723FE0B900C99FBF745
:1045D00025FE119017980890204880680790089948
:1045E000FBF71CFE0A90169806901C48C0680590C0
:1045F0000699FBF713FE0890159806901748006877
:1046000005900699FBF70AFE07900899FBF700FE54
:1046100009900A99FBF7AAFD0B900C99FBF7FEFD98
:104620001090179808900D48406807900899FBF77C
:10463000F5FD0A90169806900848006805900699BE
:10464000FBF7ECFD0890159806900448C0680590AB
:104650000699FBF7E3FD079008990BE0AC020020F8
:104660005C030020A802002014120020A4020020F5
:104670008CBD0008FBF77AFD09900A99FBF7C8FD8D
:104680000B900C99FBF7CAFD0F9017980890FE4805
:10469000006807900899FBF7C1FD0A9016980690EC
:1046A000F948406805900699FBF7B8FD0890F64870
:1046B000806880F0004006901598014605900698A5
:1046C000FBF7ACFD07900899FBF750FD09900A999C
:1046D000FBF74CFD0B900C99FBF7A0FD0E90EA4800
:1046E00000680B901199FBF741FDE7490860084607
:1046F00040680B901099FBF739FDE3494860084684
:1047000080680B900F99FBF731FDDF498860084600
:10471000C0680B900E99FBF729FDDB49C86008467D
:10472000C06808900846C06807900899FBF776FDB6
:104730000A90D54880680690D3488068059006990D
:10474000FBF76CFD0890D04840680490CE48406864
:1047500003900499FBF762FD0690CB480068049033
:10476000C948006803900499FBF758FD0590069925
:10477000FBF7FCFC07900899FBF7F8FC09900A99F5
:10478000FBF7F4FC0B9004F017F90D90BE4800689D
:104790000B900D99FBF742FDBB4908600846406845
:1047A0000B900D99FBF73AFDB749486008468068C1
:1047B0000B900D99FBF732FDB34988600846C0683D
:1047C0000B900D99FBF72AFDAF49C86008460068B9
:1047D000014604904FF08040FBF720FD0590AA4869
:1047E0008068014604900598FBF718FD0790A648DD
:1047F0004068014604904FF08040FBF70FFD0590A4
:10480000A148C068014604900598FBF707FD069093
:104810000799FBF7FDFC0B909B480068014604904C
:104820004FF08040FBF7FAFC05909748406801463E
:1048300004900598FBF7F2FC0790934880680146C6
:1048400004904FF08040FBF7E9FC05908E48C0686B
:10485000014604900598FBF7E1FC06900799FBF7E9
:1048600085FC0A9088488068014604904FF080409B
:10487000FBF7D4FC059084488068014604900598B5
:10488000FBF7CCFC079080484068014603904FF04E
:104890008040FBF7C3FC04907B48406801460390CE
:1048A0000498FBF7BBFC4FF07E510590FBF7B3FC7F
:1048B00006900799FBF7ACFC09901E98B0F91A0016
:1048C0000690FBF7A3FE0790704801680798FBF776
:1048D000A5FC08901E98808B0690FBF7A0FE014671
:1048E00007900898FBF7CCFC0890002068494883A3
:1048F00088834FF07E510898FBF75CFF04D365492D
:104900000898FBF74DFF12D220990898FBF786FC18
:1049100061490690FBF7B4FC07901F988068014638
:1049200006900798FBF722FC1F9988607BE01E9891
:10493000B0F90600002803DD1E98B0F9060003E078
:104940001E98B0F9060040420A280EDB1E98B0F906
:104950000800002803DD1E98B0F9080003E01E9847
:10496000B0F9080040420A285DDA1F98406800212B
:104970000690FBF715FF04D21F98406880F00040B6
:1049800001E01F98406845490790FBF709FF4AD2AC
:104990001F98006800210690FBF702FF04D21F98C1
:1049A000006880F0004001E01F9800683B490790D4
:1049B000FBF7F6FE37D23A48007828B13948B0F90B
:1049C0002600B0F5966F2EDA1E98B0F90A0007900F
:1049D0000798FBF71BFE34490590FBF71FFC069078
:1049E0002B480069014605900698FBF714FC2849FE
:1049F0000861084600692D490690FBF7DBFE02D2EC
:104A00002A48234908612248006929490690FBF792
:104A1000C7FE02D226481E4908611D48008B401C73
:104A20001B49088300BF1E48007880B11D48B0F9BB
:104A3000260040F21451884209DD1A4890F91E0000
:104A400040420790FBF7E2FD1149486102E0002077
:104A50000F49486117480068FBF743FECDE90401A0
:104A60000B98FBF73EFECDE9000105F0BDFD81F09E
:104A70000041CDE90201DDE90423FBF7E6FCCDE9C5
:104A80000601FBF771FE17E0AC02002088BD0008AC
:104A90005C030020000080BF0AD7633F0000A040F5
:104AA000E8030020A80300200AD7A33B0000204110
:104AB000000020C180BD00081F994860DDE9091091
:104AC00005F0CAFE0790194801680798FBF7A6FB96
:104AD0001F9908601E98B0F904000490FBF796FD3A
:104AE00005900999FBF79AFB07901E98B0F9020010
:104AF0000290FBF78BFD03900A99FBF78FFB059063
:104B00001E98B0F900000290FBF780FD03900B990E
:104B1000FBF784FB04900599FBF728FB06900799A7
:104B2000FBF724FB0249086021B000BD80BD0008EE
:104B3000A002002002480068024908607047000097
:104B4000E8F7FF1F3800002000BF0E4801684FF053
:104B5000E02082690B4800688142F6D10A4800686B
:104B600000EB4003C3EBC010C2EBC000064B1B6858
:104B7000B0FBF3F001EB4103C3EBC11300EBC30047
:104B8000704700002C0000201400002000BFFEE74A
:104B900001B58EB0F848007898B9F848C069F8496E
:104BA0000B90FBF7FDFD0CD2F648C08A00F40050D4
:104BB00038B9F248C069F44908600120F349087027
:104BC00009E0F348007830B9F2484068EE490860DF
:104BD0000220EE490870FFF735FB0B90FBF735FD1F
:104BE00000B20D90EC48007810B9EC490D9808809F
:104BF000EA4909880D98401A00B20C90E84801680B
:104C0000E1480068FBF704FBE6490890FBF706FB68
:104C100009900E99FBF734FB0B900C98FBF7F6FC10
:104C200007900E99FBF7FAFA0890DF48406A0146B0
:104C300007900898FBF79AFADC490990FBF7EEFA1F
:104C40000A900B99FBF792FAD7494862CE48006860
:104C5000D7494862D2490860CF48007810B9FF2090
:104C6000D4490870D448407860B3CB48007848B342
:104C7000D248B0F90000FBF7C9FCD1490190FBF71D
:104C8000FFFA0290CF4801680298FBF7C1FA03903F
:104C9000FBF727FDCC4ACD4BCDE90401FBF7D5FB53
:104CA000CDE90801C7480068FBF71BFDCDE9060107
:104CB000DDE90823FBF722FBCDE90A01FBF754FDF0
:104CC000C0490860BB480078012806D0022820D0DF
:104CD0001F287DD0FF287CD1EAE3AF48007A00F09E
:104CE000010020B9AC48007AC0F3400068B1AA487E
:104CF000007850B1A848007A00F0010010B10620F9
:104D0000B34988700220AB4908700020B14908708F
:104D1000FEE39D480068A64908600120AE4908707E
:104D20000220AC4908700020AC490860AC4908601A
:104D3000AC49086093488088B0F5966F08DA002087
:104D40009B4908600021A54801600020A149087026
:104D500099488078002860D09E4800780328FAD0CF
:104D600088488088B0F5966F57DD03209949087010
:104D70009D48B0F90000FBF749FC8D4908609B484D
:104D80009849086088490860C8209949088099486E
:104D90000078022801D005F073FF7A488088C0F5BA
:104DA000AF600B90FBF732FC8D49086092498C484C
:104DB0000068FBF7DBF98A49086082480068FBF766
:104DC00090FC00228D4BCDE90A01FBF7B5FC01E018
:104DD0005DE1FDE322D27B480068FBF782FC002204
:104DE000864BCDE90201FBF72AFB0022844BCDE97B
:104DF0000401FBF72AFBCDE9080179480068FBF7BD
:104E000070FCCDE90601DDE90823FBF718FBCDE9CD
:104E10000A01FBF7A9FC7249086034E1694800689F
:104E2000FBF75FFC4FF06632764BCDE90A01FBF7EA
:104E300083FC22D263480068FBF753FC00226F4BCF
:104E4000CDE90201FBF7FEFA00226D4BCDE904012A
:104E5000FBF7FBFACDE9080161480068FBF741FC6C
:104E6000CDE90601DDE90823FBF748FACDE90A019F
:104E7000FBF77AFC5A49086005E159480068FBF7DE
:104E800030FC0522604BCDE90801FBF737FACDE98C
:104E90000A01FBF769FC524908604A480068FBF7C1
:104EA00020FC0022594BCDE90A01FBF745FC23D237
:104EB00044480068FBF715FC4FF06632514BCDE9D2
:104EC0000201FBF7BFFA0022514BCDE90401FBF7C9
:104ED000BCFACDE9080142480068FBF702FCCDE9C5
:104EE0000601DDE90823FBF709FACDE90A01FBF722
:104EF0003BFC3B490860C6E039480068FBF7F1FB22
:104F00006FF00202434BCDE90801FBF7F7F9CDE959
:104F10000A01FBF729FC324908602A480068FBF7C0
:104F2000E0FB294A3C4BCDE90A01FBF705FC77D2AF
:104F300024480068FBF7D5FB0022344BCDE9020181
:104F4000FBF780FA0022354BCDE90401FBF77DFA2F
:104F5000CDE9080122480068FBF7C3FBCDE9060153
:104F6000DDE90823FBF7CAF9CDE90A01FBF7FCFBF1
:104F70001B49086087E053E010010020480F002023
:104F80000000C8438C0300203002002034020020BF
:104F9000A6000020F4030020E80300205A020020AD
:104FA000640200200AD7A33C0407002048E17A3FAE
:104FB0008407002058020020A80300206000002081
:104FC00000007A44380200209A9999999999E93F0A
:104FD0008C000020480200205C0200203C020020DF
:104FE00044020020400200202C0200200000484320
:104FF00062020020400000200000C8420000104073
:105000000000694066660E400000444000000C400D
:1050100000407F40FFBF62409999094000408F40A7
:10502000FE480068FBF75DFB6FF00202FC4BCDE928
:105030000801FBF763F9CDE90A01FBF795FBF74996
:105040000860F8480068FBF74CFBF74AF74BCDE9DE
:105050000201FBF7F7F90022F54BCDE90401FBF75C
:10506000F4F9CDE90801ED480068FBF73AFBCDE91A
:105070000601DDE90823FBF741F9CDE90A01FBF759
:1050800073FBE64908601F20EA49087040E6EA48D9
:10509000007A00F0010050B9E748007AC0F3400000
:1050A00028B90020E5498870FF20E2490870E448EB
:1050B000807D00F0020020B9E148807D00F0010011
:1050C000B8B1DF48807D00F0020010B10120DD4959
:1050D0000870DB48807D00F0010010B1FF20D94945
:1050E00008700020D8490870D8480068D84908607E
:1050F00014E0D448007828B10020D249087032204A
:10510000D1490870D048007840B1CF480078401E9F
:10511000CD490870CD480068CD490860CD488078F9
:10512000D8B3CD480078032849D1CC48008800285E
:1051300045DDCA480088401EC8490880C849C9489A
:105140000068FBF737FB0FD2C6480068FBF7C9FAC7
:10515000B54AC54BCDE90801FBF771F9CDE90A0164
:10516000FBF702FBBF490860C0480068C0490B90CC
:10517000FBF720FB23D2BD4800680790FBF7B1FA8C
:105180000022BC4BCDE90801FBF759F9CDE90A0132
:10519000FBF7EAFAB549086011E0FFE70020B149E2
:1051A0000860AD480078032809D10220AA49087098
:1051B0000120B1490870A5480068A5490860A648C3
:1051C000007802287ED19F4800780028FAD1AA48AA
:1051D0000078002876D0A9480088401CA74908809C
:1051E000A748007801284ED19948006801460B90E5
:1051F00096480068FBF7DEFA12D29548006801462F
:10520000099092480068FBF703F89E490A90FBF763
:1052100005F800210B90FAF7FEFF9249086002E0C2
:10522000002090490860894800688949086008465C
:10523000006895490B90FAF7EBFF854908608F48A5
:105240000088FBF7ECF94FF081410A90FBF718F862
:105250000B907F48006801460A900B98FAF786FF8A
:105260007B4908608548008878280BDD002082494A
:1052700008708249088075480068754908600020F8
:10528000784908609DE07E48007802287DD17B48FF
:105290000088782841DC7C496C480068FAF766FF92
:1052A0000B907A48C06801460A900B98FBF778FA91
:1052B00010D27648C0680A90644801680A98FAF7E4
:1052C000A7FF00E083E072490B90FAF7A7FF65495A
:1052D000086002E00020634908605C4800685C499F
:1052E00008600846006868490B90FAF791FF584932
:1052F000086062480088FBF792F94FF081410A90FC
:10530000FAF7BEFF0B905248006801460A900B98CE
:10531000FAF72CFF4E49086049E058480088DC281D
:1053200023DC56480088792809D100204D490860BF
:10533000584946480068FAF719FF454908604F4840
:105340000088FBF76CF94FF080410990FAF798FF5D
:1053500051490B903D480068FAF708FF0A900B99F5
:10536000FAF756FF3A49486221E044480088DD28B0
:1053700006D1474935480068FAF74AFF34490860C2
:105380003E480088FBF74BF900E01AE04FF08141FE
:105390000990FAF775FF41490B902C480068FAF71D
:1053A00037FF0A900B99FAF7E1FE29494862334822
:1053B0000088B0F5BE7F04DD00202F4908702F491A
:1053C000088037480078012801D005F021FC002032
:1053D000344908702048007802286AD119480078BA
:1053E000002866D1012008704FF07E502E490861D8
:1053F000002048612D4888611C48806A08600C982C
:10540000FBF704F929490B90FAF708FF264948628F
:1054100025480E9905F072FE23484BE04402002017
:10542000FFBF7240380200209A99999999990940D2
:1054300000408F4058020020E80300208C0000202C
:105440008C0300204902002060020020300200206E
:1054500084070020A80300204802002062020020E8
:105460000000C842400200209999C93F040700206B
:10547000000048420000E03F5C0200205E02002085
:10548000340200200000A0400000F041F40300209E
:10549000000020410000A04100008C420000BE42FC
:1054A000400000204A02002004080020CDCCCC3D62
:1054B00050E264E0806AFE490B90FBF771F901D27B
:1054C000FB480AE0FB48806AFB490B90FBF772F946
:1054D00001D2F94801E0F748806AF6498862F74846
:1054E000806AF7490B90FBF765F921D2F148806A91
:1054F0004FF07E510B90FBF75DF919D2EE49F14860
:105500000068FBF74DF913D2EA48806AEE4900E0E3
:105510001FE20990FAF782FE00210A90FAF726FEB0
:105520000B90E84801680B98FAF720FEE5490860FF
:10553000E248806AE5490B90FBF732F91FD2DD485B
:10554000806AE3490B90FBF72BF918D2D849DD4864
:105550000068FBF72FF912D2D648806ADA49099021
:10556000FAF75CFE4FF000410A90FAF7FFFD0B904E
:10557000D44801680B98FAF7F9FDD2490860D5487C
:10558000007803287ED1D448807800287AD04FF064
:105590007E50C849086100204861D0488861C748EA
:1055A000806A0B90CE4801680B98FAF7DFFDC1497D
:1055B00008600C98FBF72AF8C8490B90FAF72EFE02
:1055C000BC494862BB480E9905F098FDB94800E017
:1055D000C8E1806AB6490B90FBF7E2F801D2B44803
:1055E0000AE0B448806AB4490B90FBF7E3F801D2B3
:1055F000B14801E0AF48806AAE498862AF48806A2E
:10560000AF490B90FBF7D6F81FD2AA48806A4FF03B
:105610007E510B90FBF7CEF817D2A749A948006836
:10562000FBF7BEF811D2A348806AA7490990FAF7A0
:10563000F5FD00210A90FAF799FD0B90A148016849
:105640000B98FAF793FD9F4908609C48806A9F4930
:105650000B90FBF7A5F821D29648806A9C490B90E5
:10566000FBF79EF81AD2924996480068FBF7A2F819
:1056700014D29048806A94490990FAF7CFFD4FF010
:10568000004100E00AE00A90FAF770FD0B908D48A7
:1056900001680B98FAF76AFD8A490860914800781A
:1056A00048B101208B49087000208E4908708E484F
:1056B00000688E4908608748007801287DD18C48B1
:1056C0000088002879D000217E480068FBF768F840
:1056D0000AD07C48016887480068FAF747FD854989
:1056E00008600020774908608148B0F90000002870
:1056F0004ADD7F48B0F90000192802DA19207C49F8
:1057000008807B48B0F900004042FAF78DFF4FF067
:105710003332794BCDE90601FAF797FECDE90A015C
:1057200074480068FAF7DDFFCDE90801DDE90A23D6
:10573000FAF7EAFF1ED86E48B0F90000FAF774FFD6
:105740004FF033326C4BCDE90401FAF77EFECDE920
:10575000080168480068FAF7C4FFCDE90601DDE9F1
:105760000823FAF7CBFDCDE90A01FAF7FDFF6149FD
:1057700008605CE000215F480068FBF711F856D232
:1057800000205C49086052E05948B0F90000002848
:105790004DDA5748B0F9000010F1190F03DD6FF032
:1057A0001800534908805248B0F900004042FAF707
:1057B0003BFF4FF03332504B00E03BE0CDE90601B8
:1057C000FAF743FECDE90A014A480068FAF789FF73
:1057D000CDE90801DDE90A23FAF7AEFF1ED84448F7
:1057E000B0F90000FAF720FF4FF03332424BCDE919
:1057F0000401FAF72AFECDE908013E480068FAF7ED
:1058000070FFCDE90601DDE90823FAF777FDCDE960
:105810000A01FAF7A9FF3749086008E00021354876
:105820000068FAF7C7FF02D2002032490860002062
:105830002F4908802D480E9905F060FC2548007816
:10584000032802D12448807818B92848806A1B4967
:1058500008601A480E9905F051FC28480078012884
:1058600016D11648806A26490B90FAF799FF01D2A3
:1058700023480AE01148806A22490B90FAF79AFF00
:1058800001D2204801E00D48806A0C49886260E03E
:1058900010480078032846D10F488078A0B3074805
:1058A000806A03490B90FAF77BFF2ED2004837E05D
:1058B000000048C3040800200000484304070020FB
:1058C0000000A0413C0200200AD7233C0000A0C1F8
:1058D000000080BF48020020A8030020CDCCCC3DB2
:1058E0004002002035020020300200208407002002
:1058F00036020020440200203333D33F4A02002006
:105900000000F0C20000F0420DE01A48806A1A4917
:105910000B90FAF74FFF01D2174801E01548806A53
:105920001449886215E01348806A14490B90FAF70D
:1059300037FF01D211480AE00E48806A10490B90E7
:10594000FAF738FF01D20E4801E00A48806A094997
:1059500088620BE001210B4805F0BAFB01200A49DF
:10596000087003E001200849087000BF00BF0FB0B5
:1059700000BD000004070020000048430000C8C329
:105980000000C84314020020580200202DE9F84FFF
:1059900004469048007808B9BDE8F88F8E48007832
:1059A00088B100208D4908608D490860FDF7C0FB73
:1059B0000546FAF74AFE8B49086000F0B3F900206B
:1059C000854908702AE087480068FAF71FFE0646F6
:1059D000FDF7AEFB07463146FAF71AFC0546FAF723
:1059E00034FE7E49086000212046FAF7D9FE01D135
:1059F00000200AE079490968794A1268881AFAF79A
:105A000005FE06462146FAF73BFC0546FAF71DFE61
:105A100075490860714800687149086072480068FB
:105A2000FAF7F4FD054671482B46714A0A210090A9
:105A3000704801F0DDFD70492046FAF7EFFB06469D
:105A40006E480068FAF7E2FD074668480168384684
:105A5000FAF7E1FB05463146FAF7A2FE04D26649A1
:105A60002046FAF7DBFB22E065492046FAF7D6FB31
:105A7000064662480068FAF7C9FD07465B480168B8
:105A80003846FAF7C8FB05463146FAF793FE04D2CA
:105A90005B492046FAF7C2FB09E058480068FAF76C
:105AA000B5FD0546514801682846FAF7B4FB55494B
:105AB00008605548016853480068FAF7A9FB814619
:105AC00052492046FAF7AAFB824651464FF07E50D3
:105AD000FAF7D6FB80464FF07E51FAF747FB0746B0
